{
  "contractName": "ZombieHelper",
  "abi": [
    {
      "anonymous": false,
      "inputs": [
        {
          "indexed": false,
          "internalType": "uint256",
          "name": "zombieId",
          "type": "uint256"
        },
        {
          "indexed": false,
          "internalType": "string",
          "name": "name",
          "type": "string"
        },
        {
          "indexed": false,
          "internalType": "uint256",
          "name": "dna",
          "type": "uint256"
        }
      ],
      "name": "NewZombie",
      "type": "event"
    },
    {
      "anonymous": false,
      "inputs": [
        {
          "indexed": true,
          "internalType": "address",
          "name": "previousOwner",
          "type": "address"
        },
        {
          "indexed": true,
          "internalType": "address",
          "name": "newOwner",
          "type": "address"
        }
      ],
      "name": "OwnershipTransferred",
      "type": "event"
    },
    {
      "inputs": [
        {
          "internalType": "string",
          "name": "_name",
          "type": "string"
        }
      ],
      "name": "createRandomZombie",
      "outputs": [],
      "stateMutability": "nonpayable",
      "type": "function"
    },
    {
      "inputs": [
        {
          "internalType": "uint256",
          "name": "_zombieId",
          "type": "uint256"
        },
        {
          "internalType": "uint256",
          "name": "_kittyId",
          "type": "uint256"
        }
      ],
      "name": "feedOnKitty",
      "outputs": [],
      "stateMutability": "nonpayable",
      "type": "function"
    },
    {
      "inputs": [],
      "name": "isOwner",
      "outputs": [
        {
          "internalType": "bool",
          "name": "",
          "type": "bool"
        }
      ],
      "stateMutability": "view",
      "type": "function"
    },
    {
      "inputs": [],
      "name": "owner",
      "outputs": [
        {
          "internalType": "address",
          "name": "",
          "type": "address"
        }
      ],
      "stateMutability": "view",
      "type": "function"
    },
    {
      "inputs": [],
      "name": "renounceOwnership",
      "outputs": [],
      "stateMutability": "nonpayable",
      "type": "function"
    },
    {
      "inputs": [
        {
          "internalType": "address",
          "name": "_address",
          "type": "address"
        }
      ],
      "name": "setKittyContractAddress",
      "outputs": [],
      "stateMutability": "nonpayable",
      "type": "function"
    },
    {
      "inputs": [
        {
          "internalType": "address",
          "name": "newOwner",
          "type": "address"
        }
      ],
      "name": "transferOwnership",
      "outputs": [],
      "stateMutability": "nonpayable",
      "type": "function"
    },
    {
      "inputs": [
        {
          "internalType": "uint256",
          "name": "",
          "type": "uint256"
        }
      ],
      "name": "zombieToOwner",
      "outputs": [
        {
          "internalType": "address",
          "name": "",
          "type": "address"
        }
      ],
      "stateMutability": "view",
      "type": "function"
    },
    {
      "inputs": [
        {
          "internalType": "uint256",
          "name": "",
          "type": "uint256"
        }
      ],
      "name": "zombies",
      "outputs": [
        {
          "internalType": "string",
          "name": "name",
          "type": "string"
        },
        {
          "internalType": "uint256",
          "name": "dna",
          "type": "uint256"
        },
        {
          "internalType": "uint32",
          "name": "level",
          "type": "uint32"
        },
        {
          "internalType": "uint32",
          "name": "readyTime",
          "type": "uint32"
        },
        {
          "internalType": "uint16",
          "name": "winCount",
          "type": "uint16"
        },
        {
          "internalType": "uint16",
          "name": "lossCount",
          "type": "uint16"
        }
      ],
      "stateMutability": "view",
      "type": "function"
    },
    {
      "inputs": [],
      "name": "withdraw",
      "outputs": [],
      "stateMutability": "nonpayable",
      "type": "function"
    },
    {
      "inputs": [
        {
          "internalType": "uint256",
          "name": "_fee",
          "type": "uint256"
        }
      ],
      "name": "setLevelUpFee",
      "outputs": [],
      "stateMutability": "nonpayable",
      "type": "function"
    },
    {
      "inputs": [
        {
          "internalType": "uint256",
          "name": "_zombieId",
          "type": "uint256"
        }
      ],
      "name": "levelUp",
      "outputs": [],
      "stateMutability": "payable",
      "type": "function"
    },
    {
      "inputs": [
        {
          "internalType": "uint256",
          "name": "_zombieId",
          "type": "uint256"
        },
        {
          "internalType": "string",
          "name": "_newName",
          "type": "string"
        }
      ],
      "name": "changeName",
      "outputs": [],
      "stateMutability": "nonpayable",
      "type": "function"
    },
    {
      "inputs": [
        {
          "internalType": "uint256",
          "name": "_zombieId",
          "type": "uint256"
        },
        {
          "internalType": "uint256",
          "name": "_newDna",
          "type": "uint256"
        }
      ],
      "name": "changeDna",
      "outputs": [],
      "stateMutability": "nonpayable",
      "type": "function"
    },
    {
      "inputs": [
        {
          "internalType": "address",
          "name": "_owner",
          "type": "address"
        }
      ],
      "name": "getZombiesByOwner",
      "outputs": [
        {
          "internalType": "uint256[]",
          "name": "",
          "type": "uint256[]"
        }
      ],
      "stateMutability": "view",
      "type": "function"
    }
  ],
  "bytecode": "0x60806040526010600155600154600a6200001a9190620002a8565b60025562015180600360006101000a81548163ffffffff021916908363ffffffff16021790555066038d7ea4c680006008553480156200005957600080fd5b50336000806101000a81548173ffffffffffffffffffffffffffffffffffffffff021916908373ffffffffffffffffffffffffffffffffffffffff16021790555060008054906101000a900473ffffffffffffffffffffffffffffffffffffffff1673ffffffffffffffffffffffffffffffffffffffff16600073ffffffffffffffffffffffffffffffffffffffff167f8be0079c531659141344cd1fd0a4f28419497f9722a3daafe3b4186f6b6457e060405160405180910390a3620002f9565b7f4e487b7100000000000000000000000000000000000000000000000000000000600052601160045260246000fd5b60008160011c9050919050565b6000808291508390505b6001851115620001a9578086048111156200018157620001806200011b565b5b6001851615620001915780820291505b8081029050620001a1856200014a565b945062000161565b94509492505050565b600082620001c4576001905062000297565b81620001d4576000905062000297565b8160018114620001ed5760028114620001f8576200022e565b600191505062000297565b60ff8411156200020d576200020c6200011b565b5b8360020a9150848211156200022757620002266200011b565b5b5062000297565b5060208310610133831016604e8410600b8410161715620002685782820a9050838111156200026257620002616200011b565b5b62000297565b62000277848484600162000157565b925090508184048111156200029157620002906200011b565b5b81810290505b9392505050565b6000819050919050565b6000620002b5826200029e565b9150620002c2836200029e565b9250620002f17fffffffffffffffffffffffffffffffffffffffffffffffffffffffffffffffff8484620001b2565b905092915050565b611e2a80620003096000396000f3fe6080604052600436106100e85760003560e01c80635faf28801161008a5780638f32d59b116100595780638f32d59b146102c2578063c39cbef1146102ed578063ccf670f814610316578063f2fde38b1461033f576100e8565b80635faf28801461022e578063715018a6146102575780637bff0a011461026e5780638da5cb5b14610297576100e8565b80633ccfd60b116100c65780633ccfd60b146101745780634412e1041461018b578063528b7b8f146101c85780635f4623f114610205576100e8565b80630ce90ec2146100ed57806317a7f4cc146101095780632052465e14610132575b600080fd5b61010760048036038101906101029190611389565b610368565b005b34801561011557600080fd5b50610130600480360381019061012b91906113b6565b6103dd565b005b34801561013e57600080fd5b5061015960048036038101906101549190611389565b6104fb565b60405161016b969594939291906114da565b60405180910390f35b34801561018057600080fd5b5061018961060b565b005b34801561019757600080fd5b506101b260048036038101906101ad91906115a0565b610672565b6040516101bf919061168b565b60405180910390f35b3480156101d457600080fd5b506101ef60048036038101906101ea9190611389565b6107c4565b6040516101fc91906116bc565b60405180910390f35b34801561021157600080fd5b5061022c600480360381019061022791906115a0565b6107f7565b005b34801561023a57600080fd5b50610255600480360381019061025091906113b6565b61084c565b005b34801561026357600080fd5b5061026c610934565b005b34801561027a57600080fd5b506102956004803603810190610290919061180c565b610a03565b005b3480156102a357600080fd5b506102ac610a6a565b6040516102b991906116bc565b60405180910390f35b3480156102ce57600080fd5b506102d7610a93565b6040516102e49190611870565b60405180910390f35b3480156102f957600080fd5b50610314600480360381019061030f91906118eb565b610aea565b005b34801561032257600080fd5b5061033d60048036038101906103389190611389565b610bde565b005b34801561034b57600080fd5b50610366600480360381019061036191906115a0565b610bf9565b005b600854341461037657600080fd5b6004818154811061038a5761038961194b565b5b9060005260206000209060030201600201600081819054906101000a900463ffffffff16809291906103bb906119a9565b91906101000a81548163ffffffff021916908363ffffffff1602179055505050565b6000600760009054906101000a900473ffffffffffffffffffffffffffffffffffffffff1673ffffffffffffffffffffffffffffffffffffffff1663e98b7f4d836040518263ffffffff1660e01b815260040161043a91906119d5565b61014060405180830381865afa158015610458573d6000803e3d6000fd5b505050506040513d601f19601f8201168201806040525081019061047c9190611a31565b909192939495969798509091929394959697509091929394959650909192939495509091929394509091929350909192509091509050809150506104f683826040518060400160405280600581526020017f6b69747479000000000000000000000000000000000000000000000000000000815250610c16565b505050565b6004818154811061050b57600080fd5b906000526020600020906003020160009150905080600001805461052e90611b3f565b80601f016020809104026020016040519081016040528092919081815260200182805461055a90611b3f565b80156105a75780601f1061057c576101008083540402835291602001916105a7565b820191906000526020600020905b81548152906001019060200180831161058a57829003601f168201915b5050505050908060010154908060020160009054906101000a900463ffffffff16908060020160049054906101000a900463ffffffff16908060020160089054906101000a900461ffff169080600201600a9054906101000a900461ffff16905086565b610613610a93565b61061c57600080fd5b6000610626610a6a565b90508073ffffffffffffffffffffffffffffffffffffffff166108fc479081150290604051600060405180830381858888f1935050505015801561066e573d6000803e3d6000fd5b5050565b60606000600660008473ffffffffffffffffffffffffffffffffffffffff1673ffffffffffffffffffffffffffffffffffffffff1681526020019081526020016000205467ffffffffffffffff8111156106cf576106ce6116e1565b5b6040519080825280602002602001820160405280156106fd5781602001602082028036833780820191505090505b5090506000805b6004805490508110156107b9578473ffffffffffffffffffffffffffffffffffffffff166005600083815260200190815260200160002060009054906101000a900473ffffffffffffffffffffffffffffffffffffffff1673ffffffffffffffffffffffffffffffffffffffff16036107a6578083838151811061078b5761078a61194b565b5b60200260200101818152505081806107a290611b70565b9250505b80806107b190611b70565b915050610704565b508192505050919050565b60056020528060005260406000206000915054906101000a900473ffffffffffffffffffffffffffffffffffffffff1681565b6107ff610a93565b61080857600080fd5b80600760006101000a81548173ffffffffffffffffffffffffffffffffffffffff021916908373ffffffffffffffffffffffffffffffffffffffff16021790555050565b60148281600482815481106108645761086361194b565b5b906000526020600020906003020160020160009054906101000a900463ffffffff1663ffffffff16101561089757600080fd5b836005600082815260200190815260200160002060009054906101000a900473ffffffffffffffffffffffffffffffffffffffff1673ffffffffffffffffffffffffffffffffffffffff163373ffffffffffffffffffffffffffffffffffffffff161461090357600080fd5b83600486815481106109185761091761194b565b5b9060005260206000209060030201600101819055505050505050565b61093c610a93565b61094557600080fd5b600073ffffffffffffffffffffffffffffffffffffffff1660008054906101000a900473ffffffffffffffffffffffffffffffffffffffff1673ffffffffffffffffffffffffffffffffffffffff167f8be0079c531659141344cd1fd0a4f28419497f9722a3daafe3b4186f6b6457e060405160405180910390a360008060006101000a81548173ffffffffffffffffffffffffffffffffffffffff021916908373ffffffffffffffffffffffffffffffffffffffff160217905550565b6000600660003373ffffffffffffffffffffffffffffffffffffffff1673ffffffffffffffffffffffffffffffffffffffff1681526020019081526020016000205414610a4f57600080fd5b6000610a5a82610db2565b9050610a668282610df7565b5050565b60008060009054906101000a900473ffffffffffffffffffffffffffffffffffffffff16905090565b60008060009054906101000a900473ffffffffffffffffffffffffffffffffffffffff1673ffffffffffffffffffffffffffffffffffffffff163373ffffffffffffffffffffffffffffffffffffffff1614905090565b6002838160048281548110610b0257610b0161194b565b5b906000526020600020906003020160020160009054906101000a900463ffffffff1663ffffffff161015610b3557600080fd5b846005600082815260200190815260200160002060009054906101000a900473ffffffffffffffffffffffffffffffffffffffff1673ffffffffffffffffffffffffffffffffffffffff163373ffffffffffffffffffffffffffffffffffffffff1614610ba157600080fd5b848460048881548110610bb757610bb661194b565b5b90600052602060002090600302016000019190610bd5929190611216565b50505050505050565b610be6610a93565b610bef57600080fd5b8060088190555050565b610c01610a93565b610c0a57600080fd5b610c1381611084565b50565b826005600082815260200190815260200160002060009054906101000a900473ffffffffffffffffffffffffffffffffffffffff1673ffffffffffffffffffffffffffffffffffffffff163373ffffffffffffffffffffffffffffffffffffffff1614610c8257600080fd5b600060048581548110610c9857610c9761194b565b5b90600052602060002090600302019050610cb18161117a565b610cba57600080fd5b60025484610cc89190611be7565b935060006002858360010154610cde9190611c18565b610ce89190611c6e565b9050604051602001610cf990611cf6565b6040516020818303038152906040528051906020012084604051602001610d209190611d3c565b6040516020818303038152906040528051906020012003610d62576063606482610d4a9190611be7565b82610d559190611d53565b610d5f9190611c18565b90505b610da16040518060400160405280600681526020017f4e6f4e616d65000000000000000000000000000000000000000000000000000081525082610df7565b610daa826111a1565b505050505050565b60008082604051602001610dc69190611d3c565b6040516020818303038152906040528051906020012060001c905060025481610def9190611be7565b915050919050565b60046040518060c00160405280848152602001838152602001600163ffffffff168152602001600360009054906101000a900463ffffffff1663ffffffff1642610e419190611c18565b63ffffffff168152602001600061ffff168152602001600061ffff1681525090806001815401808255809150506001900390600052602060002090600302016000909190919091506000820151816000019080519060200190610ea592919061129c565b506020820151816001015560408201518160020160006101000a81548163ffffffff021916908363ffffffff16021790555060608201518160020160046101000a81548163ffffffff021916908363ffffffff16021790555060808201518160020160086101000a81548161ffff021916908361ffff16021790555060a082015181600201600a6101000a81548161ffff021916908361ffff160217905550505060006001600480549050610f5a9190611d53565b9050336005600083815260200190815260200160002060006101000a81548173ffffffffffffffffffffffffffffffffffffffff021916908373ffffffffffffffffffffffffffffffffffffffff1602179055506110016001600660003373ffffffffffffffffffffffffffffffffffffffff1673ffffffffffffffffffffffffffffffffffffffff168152602001908152602001600020546111ea90919063ffffffff16565b600660003373ffffffffffffffffffffffffffffffffffffffff1673ffffffffffffffffffffffffffffffffffffffff168152602001908152602001600020819055507f88f026aacbbecc90c18411df4b1185fd8d9be2470f1962f192bf84a27d0704b781848460405161107793929190611d87565b60405180910390a1505050565b600073ffffffffffffffffffffffffffffffffffffffff168173ffffffffffffffffffffffffffffffffffffffff16036110bd57600080fd5b8073ffffffffffffffffffffffffffffffffffffffff1660008054906101000a900473ffffffffffffffffffffffffffffffffffffffff1673ffffffffffffffffffffffffffffffffffffffff167f8be0079c531659141344cd1fd0a4f28419497f9722a3daafe3b4186f6b6457e060405160405180910390a3806000806101000a81548173ffffffffffffffffffffffffffffffffffffffff021916908373ffffffffffffffffffffffffffffffffffffffff16021790555050565b6000428260020160049054906101000a900463ffffffff1663ffffffff1611159050919050565b600360009054906101000a900463ffffffff1663ffffffff16426111c59190611c18565b8160020160046101000a81548163ffffffff021916908363ffffffff16021790555050565b60008082846111f99190611c18565b90508381101561120c5761120b611dc5565b5b8091505092915050565b82805461122290611b3f565b90600052602060002090601f016020900481019282611244576000855561128b565b82601f1061125d57803560ff191683800117855561128b565b8280016001018555821561128b579182015b8281111561128a57823582559160200191906001019061126f565b5b5090506112989190611322565b5090565b8280546112a890611b3f565b90600052602060002090601f0160209004810192826112ca5760008555611311565b82601f106112e357805160ff1916838001178555611311565b82800160010185558215611311579182015b828111156113105782518255916020019190600101906112f5565b5b50905061131e9190611322565b5090565b5b8082111561133b576000816000905550600101611323565b5090565b6000604051905090565b600080fd5b600080fd5b6000819050919050565b61136681611353565b811461137157600080fd5b50565b6000813590506113838161135d565b92915050565b60006020828403121561139f5761139e611349565b5b60006113ad84828501611374565b91505092915050565b600080604083850312156113cd576113cc611349565b5b60006113db85828601611374565b92505060206113ec85828601611374565b9150509250929050565b600081519050919050565b600082825260208201905092915050565b60005b83811015611430578082015181840152602081019050611415565b8381111561143f576000848401525b50505050565b6000601f19601f8301169050919050565b6000611461826113f6565b61146b8185611401565b935061147b818560208601611412565b61148481611445565b840191505092915050565b61149881611353565b82525050565b600063ffffffff82169050919050565b6114b78161149e565b82525050565b600061ffff82169050919050565b6114d4816114bd565b82525050565b600060c08201905081810360008301526114f48189611456565b9050611503602083018861148f565b61151060408301876114ae565b61151d60608301866114ae565b61152a60808301856114cb565b61153760a08301846114cb565b979650505050505050565b600073ffffffffffffffffffffffffffffffffffffffff82169050919050565b600061156d82611542565b9050919050565b61157d81611562565b811461158857600080fd5b50565b60008135905061159a81611574565b92915050565b6000602082840312156115b6576115b5611349565b5b60006115c48482850161158b565b91505092915050565b600081519050919050565b600082825260208201905092915050565b6000819050602082019050919050565b61160281611353565b82525050565b600061161483836115f9565b60208301905092915050565b6000602082019050919050565b6000611638826115cd565b61164281856115d8565b935061164d836115e9565b8060005b8381101561167e5781516116658882611608565b975061167083611620565b925050600181019050611651565b5085935050505092915050565b600060208201905081810360008301526116a5818461162d565b905092915050565b6116b681611562565b82525050565b60006020820190506116d160008301846116ad565b92915050565b600080fd5b600080fd5b7f4e487b7100000000000000000000000000000000000000000000000000000000600052604160045260246000fd5b61171982611445565b810181811067ffffffffffffffff82111715611738576117376116e1565b5b80604052505050565b600061174b61133f565b90506117578282611710565b919050565b600067ffffffffffffffff821115611777576117766116e1565b5b61178082611445565b9050602081019050919050565b82818337600083830152505050565b60006117af6117aa8461175c565b611741565b9050828152602081018484840111156117cb576117ca6116dc565b5b6117d684828561178d565b509392505050565b600082601f8301126117f3576117f26116d7565b5b813561180384826020860161179c565b91505092915050565b60006020828403121561182257611821611349565b5b600082013567ffffffffffffffff8111156118405761183f61134e565b5b61184c848285016117de565b91505092915050565b60008115159050919050565b61186a81611855565b82525050565b60006020820190506118856000830184611861565b92915050565b600080fd5b600080fd5b60008083601f8401126118ab576118aa6116d7565b5b8235905067ffffffffffffffff8111156118c8576118c761188b565b5b6020830191508360018202830111156118e4576118e3611890565b5b9250929050565b60008060006040848603121561190457611903611349565b5b600061191286828701611374565b935050602084013567ffffffffffffffff8111156119335761193261134e565b5b61193f86828701611895565b92509250509250925092565b7f4e487b7100000000000000000000000000000000000000000000000000000000600052603260045260246000fd5b7f4e487b7100000000000000000000000000000000000000000000000000000000600052601160045260246000fd5b60006119b48261149e565b915063ffffffff82036119ca576119c961197a565b5b600182019050919050565b60006020820190506119ea600083018461148f565b92915050565b6119f981611855565b8114611a0457600080fd5b50565b600081519050611a16816119f0565b92915050565b600081519050611a2b8161135d565b92915050565b6000806000806000806000806000806101408b8d031215611a5557611a54611349565b5b6000611a638d828e01611a07565b9a50506020611a748d828e01611a07565b9950506040611a858d828e01611a1c565b9850506060611a968d828e01611a1c565b9750506080611aa78d828e01611a1c565b96505060a0611ab88d828e01611a1c565b95505060c0611ac98d828e01611a1c565b94505060e0611ada8d828e01611a1c565b935050610100611aec8d828e01611a1c565b925050610120611afe8d828e01611a1c565b9150509295989b9194979a5092959850565b7f4e487b7100000000000000000000000000000000000000000000000000000000600052602260045260246000fd5b60006002820490506001821680611b5757607f821691505b602082108103611b6a57611b69611b10565b5b50919050565b6000611b7b82611353565b91507fffffffffffffffffffffffffffffffffffffffffffffffffffffffffffffffff8203611bad57611bac61197a565b5b600182019050919050565b7f4e487b7100000000000000000000000000000000000000000000000000000000600052601260045260246000fd5b6000611bf282611353565b9150611bfd83611353565b925082611c0d57611c0c611bb8565b5b828206905092915050565b6000611c2382611353565b9150611c2e83611353565b9250827fffffffffffffffffffffffffffffffffffffffffffffffffffffffffffffffff03821115611c6357611c6261197a565b5b828201905092915050565b6000611c7982611353565b9150611c8483611353565b925082611c9457611c93611bb8565b5b828204905092915050565b600081905092915050565b7f6b69747479000000000000000000000000000000000000000000000000000000600082015250565b6000611ce0600583611c9f565b9150611ceb82611caa565b600582019050919050565b6000611d0182611cd3565b9150819050919050565b6000611d16826113f6565b611d208185611c9f565b9350611d30818560208601611412565b80840191505092915050565b6000611d488284611d0b565b915081905092915050565b6000611d5e82611353565b9150611d6983611353565b925082821015611d7c57611d7b61197a565b5b828203905092915050565b6000606082019050611d9c600083018661148f565b8181036020830152611dae8185611456565b9050611dbd604083018461148f565b949350505050565b7f4e487b7100000000000000000000000000000000000000000000000000000000600052600160045260246000fdfea2646970667358221220a2ba57a2367b1ecaf36e9431a5f0c8c62c9773c860411f0045fdc1f5ef41cb0064736f6c634300080d0033",
  "immutableReferences": {},
  "source": "// SPDX-License-Identifier: MIT\npragma solidity >=0.8.13;\n\nimport \"./zombiefeeding.sol\";\n\ncontract ZombieHelper is ZombieFeeding {\n    uint256 levelUpFee = 0.001 ether;\n\n    modifier aboveLevel(uint256 _level, uint256 _zombieId) {\n        require(zombies[_zombieId].level >= _level);\n        _;\n    }\n\n    function withdraw() external onlyOwner {\n        address payable _owner = payable(address(owner()));\n        _owner.transfer(address(this).balance);\n    }\n\n    function setLevelUpFee(uint256 _fee) external onlyOwner {\n        levelUpFee = _fee;\n    }\n\n    function levelUp(uint256 _zombieId) external payable {\n        require(msg.value == levelUpFee);\n        zombies[_zombieId].level++;\n    }\n\n    function changeName(uint256 _zombieId, string calldata _newName)\n        external\n        aboveLevel(2, _zombieId)\n        onlyOwnerOf(_zombieId)\n    {\n        zombies[_zombieId].name = _newName;\n    }\n\n    function changeDna(uint256 _zombieId, uint256 _newDna)\n        external\n        aboveLevel(20, _zombieId)\n        onlyOwnerOf(_zombieId)\n    {\n        zombies[_zombieId].dna = _newDna;\n    }\n\n    function getZombiesByOwner(address _owner)\n        external\n        view\n        returns (uint256[] memory)\n    {\n        uint256[] memory result = new uint256[](ownerZombieCount[_owner]);\n        uint256 counter = 0;\n        for (uint256 i = 0; i < zombies.length; i++) {\n            if (zombieToOwner[i] == _owner) {\n                result[counter] = i;\n                counter++;\n            }\n        }\n        return result;\n    }\n}\n",
  "sourcePath": "/home/loing/Documents/Blockchain/Project/PrjOfCourseCryptoZombie/CryptoZombie/CryptoZombies/contracts/zombiehelper.sol",
  "compiler": {
    "name": "solc",
    "version": "0.8.13+commit.abaa5c0e.Emscripten.clang"
  },
  "schemaVersion": "3.4.6",
  "updatedAt": "2022-03-27T03:13:42.962Z",
  "devdoc": {
    "kind": "dev",
    "methods": {
      "isOwner()": {
        "returns": {
          "_0": "true if `msg.sender` is the owner of the contract."
        }
      },
      "owner()": {
        "returns": {
          "_0": "the address of the owner."
        }
      },
      "renounceOwnership()": {
        "details": "Allows the current owner to relinquish control of the contract."
      },
      "transferOwnership(address)": {
        "details": "Allows the current owner to transfer control of the contract to a newOwner.",
        "params": {
          "newOwner": "The address to transfer ownership to."
        }
      }
    },
    "version": 1
  },
  "userdoc": {
    "kind": "user",
    "methods": {
      "renounceOwnership()": {
        "notice": "Renouncing to ownership will leave the contract without an owner. It will not be possible to call the functions with the `onlyOwner` modifier anymore."
      }
    },
    "version": 1
  }
}